:100000000C94FE000C9405020C940A010C940A0155
:100010000C940A010C940A010C940A010C940A0134
:100020000C940A010C940A010C940A010C940A0124
:100030000C940A010C940A010C940A010C940A0114
:100040000C940A010C940A010C940A010C940A0104
:100050000C94FB010C940A010C940A010C940A0103
:100060000C940A010C940A010C940A010C940A01E4
:100070000C940A010C940A010C940A010C940A01D4
:100080000C940A010C940A010C940A010C940A01C4
:100090000C940A010C940A010C940A010C940A01B4
:1000A0000C940A010C940A010C940A010C940A01A4
:1000B0000C940A010C940A010C940A010C940A0194
:1000C0000C940A010C940A010C940A010C940A0184
:1000D0000C940A010C940A010C940A010C940A0174
:1000E0000C940A010C940A010C940A010C940A0164
:1000F0000C940A010C940A010C940A010C940A0154
:100100000C940A010C940A010C940A010C940A0143
:100110000C94E2010C940A010C940A010C940A015B
:100120000C940A010C940A010C940A010C940A0123
:100130000C940A010C940A010C940A010C940A0113
:100140000C940A010C940A010C940A010C94F1011C
:100150000C940A010C940A010C940A010C940A01F3
:100160000C940A010C940A010C940A010C940A01E3
:100170000C940A010C940A010C940A010C940A01D3
:100180000C940A010C940A010C940A010C940A01C3
:100190000C940A010C940A010C940A010C940A01B3
:1001A0000C94CE010C94D8010C940A010C940A0111
:1001B0000C940A010C940A010C940A010C940A0193
:1001C0000C940A010C940A010C940A010C940A0183
:1001D0000C940A010C940A010C940A010C940A0173
:1001E0000C940A010C940A010C940A010C940A0163
:1001F0000C940A010C940A010C940A0111241FBEEC
:10020000CFEFCDBFDFE3DEBF00E00CBF0E941E02D8
:100210000C9423020C94000088E08093410684E053
:10022000809342061092A7088FEC8093A608109244
:10023000A308E0EAF8E083E0858384818861848311
:10024000089582E080935000E0E5F0E0818181FF35
:10025000FDCF88ED84BF81E0809340002FEF87EAD7
:1002600091E6215080409040E1F700C000000895E1
:10027000E0E6F6E088E3818380E2868380E186839E
:1002800087E0818382E0868384E08683E0E0F9E092
:1002900083E9818384EF91E086A397A316A617A62E
:1002A00010A611A681E08083089580E88093A506BA
:1002B000E0E8F3E087E1828383E980838DE2858350
:1002C00081E084830895EF92FF920F931F93CF9361
:1002D000DF930E9421017894C0EAD6E08CE08A8303
:1002E00084E08A8728E02B878AE18A8B8B8B85E0E4
:1002F0008987E0E4F6E08BE1808B818BE0E8F1E038
:1003000090E690839FE0908700E018E0D8012C935E
:1003100028E613962C93888B898B88E782839287B3
:100320000F2EE12CFBE0FF2EF02D8AE0F7018083F9
:100330008AE683830E94380180EE89838E830E943F
:1003400055010E940C01A0E4B9E081E016968C935F
:10035000169711961C9211978CE093E096968D93C8
:100360009C939797E0E4F8E083E0868311828CE920
:1003700090E086A397A387E08C9380837894D8013C
:1003800090961D921C929197F70110A211A2DF91F5
:10039000CF911F910F91FF90EF9008951F920F92B0
:1003A0000FB60F9211240F900FBE0F901F9018954B
:1003B0001F920F920FB60F9211240F900FBE0F9045
:1003C0001F9018951F920F920FB60F9211248F93C2
:1003D00080E88093A6068F910F900FBE0F901F901C
:1003E00018951F920F920FB60F9211240F900FBE07
:1003F0000F901F9018951F920F920FB60F92112415
:100400000F900FBE0F901F9018951F920F920FB66E
:100410000F9211240BB60F928F93EF93FF93E0E5A9
:10042000F0E0838182608383FF91EF918F910F9041
:100430000BBE0F900FBE0F901F9018950E94630186
:0A04400080E090E00895F894FFCFEB
:00000001FF
