:100000000C94FE000C940A010C940A010C940A0151
:100010000C940A010C940A010C940A010C940A0134
:100020000C940A010C940A010C940A010C940A0124
:100030000C940A010C940A010C940A010C940A0114
:100040000C940A010C940A010C940A010C940A0104
:100050000C940A010C940A010C940A010C940A01F4
:100060000C940A010C940A010C940A010C940A01E4
:100070000C940A010C940A010C940A010C940A01D4
:100080000C940A010C940A010C940A010C940A01C4
:100090000C940A010C940A010C940A010C940A01B4
:1000A0000C940A010C940A010C940A010C940A01A4
:1000B0000C940A010C940A010C940A010C940A0194
:1000C0000C940A010C940A010C940A010C940A0184
:1000D0000C940A010C940A010C940A010C940A0174
:1000E0000C940A010C940A010C940A010C940A0164
:1000F0000C940A010C940A010C940A010C940A0154
:100100000C940A010C940A010C940A010C940A0143
:100110000C940A010C940A010C940A010C940A0133
:100120000C940A010C940A010C940A010C940A0123
:100130000C940A010C940A010C940A010C940A0113
:100140000C940A010C940A010C940A010C940A0103
:100150000C940A010C940A010C940A010C940A01F3
:100160000C940A010C940A010C940A010C940A01E3
:100170000C940A010C940A010C940A010C940A01D3
:100180000C940A010C940A010C940A010C940A01C3
:100190000C940A010C940A010C940A010C940A01B3
:1001A0000C940A010C940A010C940A010C940A01A3
:1001B0000C940A010C940A010C940A010C940A0193
:1001C0000C940A010C940A010C940A010C940A0183
:1001D0000C940A010C940A010C940A010C940A0173
:1001E0000C940A010C940A010C940A010C940A0163
:1001F0000C940A010C940A010C940A0111241FBEEC
:10020000CFEFCDBFDFE3DEBF00E00CBF0E940C01EB
:100210000C942B010C940000109280068FEF8093B9
:10022000A00680E0A0EAB6E0E0E8F6E08F5F149672
:100230008C931497908595FF07C0C7EAD1E6219764
:10024000F1F700C00000F2CFC3EDD0E32197F1F742
:0A02500000C00000EBCFF894FFCFD0
:00000001FF
